:020000040000FA
:040000000DEF00F010
:040008006DEF0BF09D
:06001800FF006CEF0CF08C
:1010000000436F6E67726174732E2E2E2E554152FF
:1010100054206861766520737563636573736675C4
:101020006C6C792073656E6420737472696E6700EE
:1010300053494D5F434152445F4E4F5F5245475FB6
:101040004552524F52004154442B323531393734D6
:101050003433373936303B004E4F5F53494D5F4391
:101060004152445F4552524F5200434F4D4D554EF1
:101070004954455F4552524F520057686174277377
:101080002055500041542B435245473F0041542BBB
:101090004350494E3F005355434345535300524537
:0B10A000414459004F4B004154000038
:1010AC001CEC0DF037EC0DF008EC0DF0D28E060EAA
:1010BC00226E130E216EAE0EE82EFED7212EFCD71B
:1010CC00222EFAD77A0E026E100E036E45EC0CF03F
:1010DC00010E026E100E036E45EC0CF0000E236E2A
:1010EC00060E226E130E216EAE0EE82EFED7212EAA
:1010FC00FCD7222EFAD7232A090E236488EF08F096
:10110C008AEF08F076EF08F0030E226E8A0E216E3D
:10111C00560EE82EFED7212EFCD7222EFAD7BBB0C6
:10112C009AEF08F09DEF08F0010E9EEF08F0000E0C
:10113C00FF0A216EBB502118FE0B2118BB6ECCBAD6
:10114C00AAEF08F0ACEF08F08AEF08F0820E216EDF
:10115C00DE0EE82EFED7212EFCD7CCBAB8EF08F065
:10116C00BAEF08F08AEF08F0CCAABFEF08F0C1EF95
:10117C0008F0BAEF08F0460E1C6E100E1D6E10EC47
:10118C000AF01CC024F01DC025F024042510D8A49E
:10119C00D2EF08F0D4EF08F0DEEF08F0010EBB6ED2
:1011AC00960E026E100E036E45EC0CF02DEF09F04E
:1011BC00242806E12528D8A4E6EF08F0E8EF08F08B
:1011CC00F2EF08F0020EBB6E6A0E026E100E036E8A
:1011DC0045EC0CF02DEF09F0FE0E241806E1252845
:1011EC00D8A4FBEF08F0FDEF08F007EF09F0030EB1
:1011FC00BB6E580E026E100E036E45EC0CF02DEF0C
:10120C0009F0FD0E241806E12528D8A410EF09F0EA
:10121C0012EF09F01CEF09F0040EBB6E300E026EDB
:10122C00100E036E45EC0CF02DEF09F0FC0E24189B
:10123C0006E12528D8A425EF09F027EF09F02BEFBC
:10124C0009F0050EBB6E2DEF09F0060EBB6E100EED
:10125C00226E390E216E0E0EE82EFED7212EFCD7F3
:10126C00222EFAD7000EBB6E8AEF08F00DEF00F0BD
:10127C00056E000E076E000E066EF2EC0CF005EF1C
:10128C000AF0840E026E100E036E1EEC0CF0820E31
:10129C00046EDE0EE82EFED7042EFCD7000E086E70
:1012AC00600E0824D96EDA6A000EDA222B0EDE18D4
:1012BC00D8A463EF09F065EF09F0EFEF09F0610EC8
:1012CC000824D96EDA6A000EDA22430EDE18D8A48E
:1012DC0072EF09F074EF09F0EFEF09F0620E0824D9
:1012EC00D96EDA6A000EDA22520EDE18D8A481EF1B
:1012FC0009F083EF09F0EFEF09F0630E0824D96EC3
:10130C00DA6A000EDA22450EDE18D8A490EF09F046
:10131C0092EF09F0EFEF09F0640E0824D96EDA6A47
:10132C00000EDA22470EDE18D8A49FEF09F0A1EFC9
:10133C0009F0EFEF09F0650E0824D96EDA6A000E99
:10134C00DA223A0EDE18D8A4AEEF09F0B0EF09F0AD
:10135C00EFEF09F0670E0824D96EDA6A000EDA2274
:10136C00310EDE18D8B4BDEF09F0BFEF09F0CEEFA7
:10137C0009F0670E0824D96EDA6A000EDA22300EF4
:10138C00DE18D8A4CCEF09F0CEEF09F0EFEF09F09E
:10139C00690E0824D96EDA6A000EDA22310EDE18D4
:1013AC00D8B4DBEF09F0DDEF09F0ECEF09F0690ED2
:1013BC000824D96EDA6A000EDA22350EDE18D8A4AB
:1013CC00EAEF09F0ECEF09F0EFEF09F0010E0FEF87
:1013DC000AF0082A450E0864F6EF09F0F8EF09F058
:1013EC0056EF09F0072A0750055CD8B000EF0AF059
:1013FC0002EF0AF005EF0AF0000E0FEF0AF00650AC
:10140C00D8B40BEF0AF00DEF0AF047EF09F002EF3A
:10141C000AF01200A70E146E100E156EA40E166EA6
:10142C00100E176E030E186E000E1A6E320E196E19
:10143C00C3EC0BF01E6E1E501F6E206A1F50201046
:10144C00D8A42BEF0AF02DEF0AF031EF0AF01C684C
:10145C001D6891EF0AF08D0E146E100E156E9E0E17
:10146C00166E100E176E030E186E000E1A6E320EDC
:10147C00196EC3EC0BF01E6E1E501F6E206A1F50AF
:10148C002010D8A44CEF0AF04EEF0AF054EF0AF0FB
:10149C00FF0E1D6EFE0E1C6E91EF0AF0030E3EEC5D
:1014AC0009F01E6E1E501F6E206A1F502010D8A40B
:1014BC0062EF0AF064EF0AF06AEF0AF0FF0E1D6E9D
:1014CC00FD0E1C6E91EF0AF01CC014F01DC015F03F
:1014DC00A40E166E100E176E020E186E000E1A6EFB
:1014EC00320E196EC3EC0BF01E6E1E501F6E206A6E
:1014FC001F502010D8A485EF0AF087EF0AF08DEF6B
:10150C000AF0FF0E1D6EFC0E1C6E91EF0AF0000E21
:10151C001D6E010E1C6E120001C008F002C009F015
:10152C0003C00AF004C00BF00506D8A00606052877
:10153C0006E10628D8A4A5EF0AF0A7EF0AF0B4EF4D
:10154C000AF0000E026E000E016E08EF0BF0084A56
:10155C00092A0A4A0B2A0506D8A00606600023F0C1
:10156C00D9FF600027F0DAFFDF50D8B4C0EF0AF0E3
:10157C00C2EF0AF0F3EF0AF060002BF0F6FF600008
:10158C002FF0F7FF0800F5500009D8B4D0EF0AF09F
:10159C00D2EF0AF0F3EF0AF005500610D8B4D9EFE9
:1015AC000AF0DBEF0AF0F3EF0AF0600023F0D9FF4A
:1015BC00600027F0DAFFDF50076E60002BF0F6FFBB
:1015CC0060002FF0F7FF0800F5500718D8B4F1EFC2
:1015DC000AF0F3EF0AF0ADEF0AF0600023F0D9FF48
:1015EC00600027F0DAFFDF50076E60002BF0F6FF8B
:1015FC0060002FF0F7FF0800F550075C016E026ADF
:10160C00D8A0020612000E500F10D8B410EF0BF039
:10161C0012EF0BF068EF0BF00EC001F00FC002F0F0
:10162C00B5EC0CF001C010F002C011F051EF0BF052
:10163C000CC001F00DC002F00EC003F00FC004F09E
:10164C0010C005F011C006F092EC0AF00150021027
:10165C00D8A433EF0BF035EF0BF03BEF0BF00CC0D5
:10166C000CF00DC00DF06CEF0BF0010E0C24016EA4
:10167C00000E0D20026E60003BF0F6FF60003FF0A4
:10168C00F7FF0800F550036E046AF4EC0BF001C090
:10169C000CF002C00DF00C500D10D8B458EF0BF03C
:1016AC005AEF0BF068EF0BF0600033F0D9FF6000DD
:1016BC0037F0DAFFDF50D8A466EF0BF068EF0BF0D1
:1016CC001EEF0BF0000E0C6E000E0D6E12003901A9
:1016DC0093AD73EF0BF075EF0BF093EF0BF0A3AD35
:1016EC007AEF0BF07CEF0BF093EF0BF0600E2924EC
:1016FC00D96EDA6A000EDA226F00A3F7DFFF292A0F
:10170C00460E29648CEF0BF08EEF0BF090EF0BF084
:10171C00000E296EA39DBAEF0BF093A798EF0BF078
:10172C009AEF0BF0BAEF0BF0A3A79FEF0BF0A1EF22
:10173C000BF0BAEF0BF0600E2924D96EDA6A000EAA
:10174C00DA226F00A3F7DFFF292A460E2964B1EFD6
:10175C000BF0B3EF0BF0B5EF0BF0000E296E6F0032
:10176C00A0F726F02880A397A3ADBFEF0BF0C1EF35
:10177C000BF0C2EF0BF0A39D1100F2EC0CF0000E7D
:10178C001B6EE9EF0BF0F2EC0CF014C002F015C07C
:10179C0003F01EEC0CF019C001F01AC002F091EC31
:1017AC000CF016C012F017C013F0D4EC0CF00009BA
:1017BC00D8B4E3EF0BF0E5EF0BF0E8EF0BF0010E14
:1017CC00F3EF0BF01B2A18501B5CD8A0F0EF0BF0BA
:1017DC00F2EF0BF0C9EF0BF0000E1200600007F0F7
:1017EC00D9FF60000BF0DAFF0350DE18D8A401EF2C
:1017FC000CF003EF0CF009EF0CF001C001F002C08B
:10180C0002F01DEF0CF0600007F0D9FF60000BF048
:10181C00DAFF014A022ADF50D8A417EF0CF019EFB7
:10182C000CF0F4EF0BF0000E016E000E026E1200C5
:10183C00F2EC0CF02EEF0CF060000BF0F6FF6000F9
:10184C000FF0F7FF0800F5502AEC0DF0024A032ABE
:10185C0060000BF0F6FF60000FF0F7FF0800F5508A
:10186C000009D8A43CEF0CF03EEF0CF022EF0CF08A
:10187C000D0E2AEC0DF00A0E2AEC0DF0120053EFAF
:10188C000CF060000BF0F6FF60000FF0F7FF0800A3
:10189C00F5502AEC0DF0024A032A60000BF0F6FF1B
:1018AC0060000FF0F7FF0800F5500009D8A461EFB5
:1018BC000CF063EF0CF047EF0CF0F2EC0CF00D0EAB
:1018CC002AEC0DF00A0E2AEC0DF01200860EF66EC4
:1018DC001A0EF76E000EF86E09006F00D4FF2AF096
:1018EC0009006F00D4FF2BF000EE60F0460EEE6A9C
:1018FC00E806FDE1296A286A276A266A080ED56E71
:10190C00000ED66E000ED76E000EF86E100EF76E2F
:10191C00000156EF08F0000E056E000E046E000E6E
:10192C00056E000E046EA5EF0CF01A0E036EF80E89
:10193C00E82EFED7032EFCD700D0044A052A01500E
:10194C00045C0550800A036E0250800A0358D8A02C
:10195C00B2EF0CF0B4EF0CF09BEF0CF0120001C0E6
:10196C0003F002C004F0BDEF0CF0014A022A600043
:10197C0007F0F6FF60000BF0F7FF0800F5500009C8
:10198C00D8A4CBEF0CF0CDEF0CF0BBEF0CF0035068
:10199C00015C016E04500258026E12003901939DD5
:1019AC00600E0C6E000E0D6E12C00EF013C00FF018
:1019BC0009EC0BF00C500D10D8B4E7EF0CF0E9EF7C
:1019CC000CF0EEEF0CF03901938D010EF1EF0CF0F1
:1019DC003901938D000E1200000E016E600E012471
:1019EC00D96EDA6A000EDA22000EDF6E012A450E7D
:1019FC00016403EF0DF005EF0DF0F4EF0CF0000EA9
:101A0C00296E1200000E266E000E276E2890000E16
:101A1C003D01F76FB00EF26F800EF36F330EF56F62
:101A2C00000EF66F39019387938D1200F00EC36E82
:101A3C00BF0EC46E1F0E3A01606FF00E506F130E86
:101A4C00166F170EE56F1200016E3D01F7AB31EF0B
:101A5C000DF033EF0DF02BEF0DF0600007F0EAFD09
:101A6C001200600E3901D96F000EDB6F000EDD6FB6
:0C1A7C00020EDF6F000EDE6F120046103D
:020000040020DA
:10000000FF0FFF0FFF0FFF0FFF0FFF0FFF0FFF0F80
:020000040030CA
:0A000000ECFFF7FF9FFFFFFFFFFF7B
:00000001FF
